:020000040800F2
:100000000050002005030008A1020008A902000812
:10001000B1020008B9020008C10200080000000097
:10002000000000000000000000000000C9020008FD
:10003000D502000800000000E1020008ED020008FF
:100040004D0300084D0300084D0300084D03000850
:100050004D0300084D0300084D0300084D03000840
:100060004D0300084D0300084D0300084D03000830
:100070004D0300084D0300084D0300084D03000820
:100080004D0300084D0300084D0300084D03000810
:100090004D0300084D0300084D0300084D03000800
:1000A0004D0300084D0300084D0300084D030008F0
:1000B0004D0300084D0300084D0300084D030008E0
:1000C0004D0300084D0300084D0300084D030008D0
:1000D0004D0300084D0300084D0300084D030008C0
:1000E0004D0300084D0300084D0300080000000008
:1000F0000000000000000000000000000000000000
:0C01000000000000000000005FF808F1A3
:10010C0010B5054C237833B9044B13B10448AFF345
:10011C0000800123237010BD0400002000000000AB
:10012C00BC03000808B5034B1BB103490348AFF3EC
:10013C00008008BD0000000008000020BC0300087F
:10014C0080B500AF3C4B1B683B4A43F480331360D3
:10015C0000BF394B1B6803F40033002BF9D0374B2D
:10016C001B68364A43F004031360344B1B68334A54
:10017C0043F010031360304B5B682F4A43F4803319
:10018C0053602D4B5B682C4A43F4E01353602A4BAD
:10019C005B68294A43F480635360274B1B68264AEB
:1001AC0043F08073136000BF234B1B6803F0007394
:1001BC00002BF9D0204B5B681F4A43F002035360BD
:1001CC0000BF1D4B5B6803F00C03082BF9D11A4BD5
:1001DC009B69194A43F010039361174BDB69164A6C
:1001EC0043F00103D3614FF0804341F61F429A6202
:1001FC004FF080430922DA624FF080431B684FF0C6
:10020C00804243F0010313600D4B5B680C4A23F4EE
:10021C00700353600A4B5B68094A43F40013536044
:10022C00074BDB68064A83F40053D3604FF47A70B3
:10023C0000F008F800BFF3E7001002400020024075
:10024C000010014080B485B000AF78600023FB60E3
:10025C0016E04FF0804300225A624FF080431B6936
:10026C004FF0804223F00103136100BF4FF0804335
:10027C001B6903F00103002BF8D0FB680133FB6012
:10028C00FA687B689A42E4D300BF00BF1437BD46BE
:10029C0080BC704780B400AF00BFFDE780B400AFF6
:1002AC0000BFFDE780B400AF00BFFDE780B400AF36
:1002BC0000BFFDE780B400AF00BFFDE780B400AF26
:1002CC0000BFBD4680BC704780B400AF00BFBD46C8
:1002DC0080BC704780B400AF00BFBD4680BC704787
:1002EC0080B500AF00F02EF800BF80BD80B400AF29
:1002FC0000BFBD4680BC7047FFF7F8FF0B480C49A8
:10030C000C4A002302E0D458C4500433C4188C4265
:10031C00F9D3094A094C002301E013600432A242CC
:10032C00FBD300F021F8FFF70BFF70470000002013
:10033C0004000020DC03000804000020240000203E
:10034C00FEE7000080B400AF054B1B781A46054B46
:10035C001B681344034A136000BFBD4680BC704742
:10036C00000000202000002070B500260C4D0D4C24
:10037C00641BA410A64209D100F01AF800260A4DFD
:10038C000A4C641BA410A64205D170BD55F8043B61
:10039C0098470136EEE755F8043B98470136F2E7EB
:1003AC00D4030008D4030008D4030008D8030008C1
:1003BC00F8B500BFF8BC08BC9E467047F8B500BF46
:0803CC00F8BC08BC9E46704716
:0403D40031010008EB
:0403D8000D0100080B
:0403DC00010000001C
:0400000508000305E7
:00000001FF
