:020000040800F2
:10000000005000207D0300081903000821030008A8
:10001000290300083103000839030008000000002C
:100020000000000000000000000000004103000884
:100030004D03000800000000590300086503000894
:10004000C5030008C5030008C5030008C503000870
:10005000C5030008C5030008C5030008C503000860
:10006000C5030008C5030008C5030008C503000850
:10007000C5030008C5030008C5030008C503000840
:10008000C5030008C5030008C5030008C503000830
:10009000C5030008C5030008C5030008C503000820
:1000A000C5030008C5030008C5030008C503000810
:1000B00099010008C5030008C5030008C50300082E
:1000C000C5030008C5030008C5030008C5030008F0
:1000D000C5030008C5030008C5030008C5030008E0
:1000E000C5030008C5030008C503000800000000A0
:1000F0000000000000000000000000000000000000
:0C01000000000000000000005FF808F1A3
:10010C0010B5054C237833B9044B13B10448AFF345
:10011C0000800123237010BD0400002000000000AB
:10012C003404000808B5034B1BB103490348AFF373
:10013C00008008BD00000000080000203404000806
:10014C0080B483B000AF0346FB7197F90730002BE6
:10015C000BDBFB7903F01F02064997F907305B09AB
:10016C00012000FA02F241F8232000BF0C37BD46F3
:10017C0080BC704700E100E080B500AF00F062F891
:10018C004FF47A7000F020F800BFFDE780B400AFA8
:10019C004FF080431B6903F00103002B0DD04FF08F
:1001AC0080431B694FF0804223F001031361054B20
:1001BC00DB68044A83F40053D36000BFBD4680BCA7
:1001CC00704700BF0010014080B582B000AF0346FD
:1001DC00FB801B4BDB691A4A43F00103D3614FF0E0
:1001EC00804341F61F429A62FA8813469B001344DF
:1001FC005B005A1E4FF08043DA624FF080435B691C
:10020C004FF0804243F0010353614FF080430022D2
:10021C005A624FF08043DB684FF0804243F0010399
:10022C00D3601C20FFF78CFF4FF080431B684FF00E
:10023C00804243F00103136000BF0837BD4680BD08
:10024C000010024080B400AF2D4B1B682C4A43F4C5
:10025C008033136000BF2A4B1B6803F40033002B60
:10026C00F9D0284B1B68274A43F004031360254B35
:10027C001B68244A43F010031360214B5B68204A2F
:10028C0043F4803353601E4B5B681D4A43F4E01308
:10029C0053601B4B5B681A4A43F480635360184BE2
:1002AC001B68174A43F08073136000BF144B1B6824
:1002BC0003F00073002BF9D0114B5B68104A43F02C
:1002CC000203536000BF0E4B5B6803F00C03082B5A
:1002DC00F9D10B4B9B690A4A43F0100393610A4B0B
:1002EC005B68094A23F470035360074B5B68064A4A
:1002FC0043F40013536000BFBD4680BC704700BF81
:10030C0000100240002002400010014080B400AFF9
:10031C0000BFFDE780B400AF00BFFDE780B400AFC5
:10032C0000BFFDE780B400AF00BFFDE780B400AFB5
:10033C0000BFFDE780B400AF00BFBD4680BC704776
:10034C0080B400AF00BFBD4680BC704780B400AF26
:10035C0000BFBD4680BC704780B500AF00F02EF8E2
:10036C0000BF80BD80B400AF00BFBD4680BC7047ED
:10037C00FFF7F8FF0B480C490C4A002302E0D45855
:10038C00C4500433C4188C42F9D3094A094C0023D5
:10039C0001E013600432A242FBD300F021F8FFF716
:1003AC00EBFE7047000000200400002054040008FD
:1003BC000400002024000020FEE7000080B400AF01
:1003CC00054B1B781A46054B1B681344034A1360F4
:1003DC0000BFBD4680BC70470000002020000020FC
:1003EC0070B500260C4D0D4C641BA410A64209D10F
:1003FC0000F01AF800260A4D0A4C641BA410A64201
:10040C0005D170BD55F8043B98470136EEE755F819
:10041C00043B98470136F2E74C0400084C040008F2
:10042C004C04000850040008F8B500BFF8BC08BC28
:10043C009E467047F8B500BFF8BC08BC9E46704796
:04044C003101000872
:040450000D01000892
:0404540001000000A3
:040000050800037D6F
:00000001FF
